{
  "contractName": "CardList",
  "abi": [
    {
      "inputs": [],
      "payable": false,
      "stateMutability": "nonpayable",
      "type": "constructor"
    },
    {
      "constant": true,
      "inputs": [],
      "name": "cardCount",
      "outputs": [
        {
          "internalType": "uint256",
          "name": "",
          "type": "uint256"
        }
      ],
      "payable": false,
      "stateMutability": "view",
      "type": "function"
    },
    {
      "constant": true,
      "inputs": [
        {
          "internalType": "uint256",
          "name": "",
          "type": "uint256"
        }
      ],
      "name": "cards",
      "outputs": [
        {
          "internalType": "uint256",
          "name": "id",
          "type": "uint256"
        },
        {
          "internalType": "string",
          "name": "name",
          "type": "string"
        },
        {
          "internalType": "string",
          "name": "num",
          "type": "string"
        },
        {
          "internalType": "string",
          "name": "code",
          "type": "string"
        },
        {
          "internalType": "string",
          "name": "exdate",
          "type": "string"
        }
      ],
      "payable": false,
      "stateMutability": "view",
      "type": "function"
    },
    {
      "constant": false,
      "inputs": [
        {
          "internalType": "string",
          "name": "_name",
          "type": "string"
        },
        {
          "internalType": "string",
          "name": "_num",
          "type": "string"
        },
        {
          "internalType": "string",
          "name": "_code",
          "type": "string"
        },
        {
          "internalType": "string",
          "name": "_exdate",
          "type": "string"
        }
      ],
      "name": "createCard",
      "outputs": [],
      "payable": false,
      "stateMutability": "nonpayable",
      "type": "function"
    }
  ],
  "bytecode": "0x60806040526000805534801561001457600080fd5b506100fb6040518060400160405280600681526020017f416e6472656100000000000000000000000000000000000000000000000000008152506040518060400160405280600d81526020017f30383031323030303030323430000000000000000000000000000000000000008152506040518060400160405280600381526020017f35303400000000000000000000000000000000000000000000000000000000008152506040518060400160405280600581526020017f31322f323000000000000000000000000000000000000000000000000000000081525061010060201b60201c565b61027a565b60008081548092919060010191905055506040518060a0016040528060005481526020018581526020018481526020018381526020018281525060016000805481526020019081526020016000206000820151816000015560208201518160010190805190602001906101749291906101d5565b5060408201518160020190805190602001906101919291906101d5565b5060608201518160030190805190602001906101ae9291906101d5565b5060808201518160040190805190602001906101cb9291906101d5565b5090505050505050565b828054600181600116156101000203166002900490600052602060002090601f016020900481019282601f1061021657805160ff1916838001178555610244565b82800160010185558215610244579182015b82811115610243578251825591602001919060010190610228565b5b5090506102519190610255565b5090565b61027791905b8082111561027357600081600090555060010161025b565b5090565b90565b610921806102896000396000f3fe608060405234801561001057600080fd5b50600436106100415760003560e01c80630c2ad3f9146100465780631b6cde10146102c65780638dc10768146102e4575b600080fd5b6102c46004803603608081101561005c57600080fd5b810190808035906020019064010000000081111561007957600080fd5b82018360208201111561008b57600080fd5b803590602001918460018302840111640100000000831117156100ad57600080fd5b91908080601f016020809104026020016040519081016040528093929190818152602001838380828437600081840152601f19601f8201169050808301925050505050505091929192908035906020019064010000000081111561011057600080fd5b82018360208201111561012257600080fd5b8035906020019184600183028401116401000000008311171561014457600080fd5b91908080601f016020809104026020016040519081016040528093929190818152602001838380828437600081840152601f19601f820116905080830192505050505050509192919290803590602001906401000000008111156101a757600080fd5b8201836020820111156101b957600080fd5b803590602001918460018302840111640100000000831117156101db57600080fd5b91908080601f016020809104026020016040519081016040528093929190818152602001838380828437600081840152601f19601f8201169050808301925050505050505091929192908035906020019064010000000081111561023e57600080fd5b82018360208201111561025057600080fd5b8035906020019184600183028401116401000000008311171561027257600080fd5b91908080601f016020809104026020016040519081016040528093929190818152602001838380828437600081840152601f19601f8201169050808301925050505050505091929192905050506104d6565b005b6102ce6105ab565b6040518082815260200191505060405180910390f35b610310600480360360208110156102fa57600080fd5b81019080803590602001909291905050506105b1565b6040518086815260200180602001806020018060200180602001858103855289818151815260200191508051906020019080838360005b83811015610362578082015181840152602081019050610347565b50505050905090810190601f16801561038f5780820380516001836020036101000a031916815260200191505b50858103845288818151815260200191508051906020019080838360005b838110156103c85780820151818401526020810190506103ad565b50505050905090810190601f1680156103f55780820380516001836020036101000a031916815260200191505b50858103835287818151815260200191508051906020019080838360005b8381101561042e578082015181840152602081019050610413565b50505050905090810190601f16801561045b5780820380516001836020036101000a031916815260200191505b50858103825286818151815260200191508051906020019080838360005b83811015610494578082015181840152602081019050610479565b50505050905090810190601f1680156104c15780820380516001836020036101000a031916815260200191505b50995050505050505050505060405180910390f35b60008081548092919060010191905055506040518060a00160405280600054815260200185815260200184815260200183815260200182815250600160008054815260200190815260200160002060008201518160000155602082015181600101908051906020019061054a929190610847565b506040820151816002019080519060200190610567929190610847565b506060820151816003019080519060200190610584929190610847565b5060808201518160040190805190602001906105a1929190610847565b5090505050505050565b60005481565b6001602052806000526040600020600091509050806000015490806001018054600181600116156101000203166002900480601f0160208091040260200160405190810160405280929190818152602001828054600181600116156101000203166002900480156106635780601f1061063857610100808354040283529160200191610663565b820191906000526020600020905b81548152906001019060200180831161064657829003601f168201915b505050505090806002018054600181600116156101000203166002900480601f0160208091040260200160405190810160405280929190818152602001828054600181600116156101000203166002900480156107015780601f106106d657610100808354040283529160200191610701565b820191906000526020600020905b8154815290600101906020018083116106e457829003601f168201915b505050505090806003018054600181600116156101000203166002900480601f01602080910402602001604051908101604052809291908181526020018280546001816001161561010002031660029004801561079f5780601f106107745761010080835404028352916020019161079f565b820191906000526020600020905b81548152906001019060200180831161078257829003601f168201915b505050505090806004018054600181600116156101000203166002900480601f01602080910402602001604051908101604052809291908181526020018280546001816001161561010002031660029004801561083d5780601f106108125761010080835404028352916020019161083d565b820191906000526020600020905b81548152906001019060200180831161082057829003601f168201915b5050505050905085565b828054600181600116156101000203166002900490600052602060002090601f016020900481019282601f1061088857805160ff19168380011785556108b6565b828001600101855582156108b6579182015b828111156108b557825182559160200191906001019061089a565b5b5090506108c391906108c7565b5090565b6108e991905b808211156108e55760008160009055506001016108cd565b5090565b9056fea265627a7a72315820f83e54cda90a9d13602bef7421f359bec1a641bd70fe9be0b0671e455bb48d7064736f6c63430005100032",
  "source": "pragma solidity ^0.5.16;\r\n\r\ncontract CardList {\r\n   uint public cardCount = 0;\r\n\r\n   struct Card {\r\n    uint id;\r\n    string name;\r\n    string num;\r\n    string code;\r\n    string exdate;\r\n  }\r\n\r\n  mapping(uint => Card) public cards;\r\n\r\n     constructor() public {\r\n      createCard(\"Andrea\", \"0801200000240\", \"504\", \"12/20\");\r\n   }\r\n   \r\n  function createCard(string memory _name, string memory _num, string memory _code, string memory _exdate) public {\r\n    cardCount ++;\r\n    cards[cardCount] = Card(cardCount, _name, _num, _code, _exdate);\r\n  }\r\n\r\n}",
  "sourcePath": "C:/Users/andre/Desktop/FinalProjectDAV/BlockchainSystem/card-list/contracts/CardList.sol",
  "compiler": {
    "name": "solc",
    "version": "0.5.16+commit.9c3226ce.Emscripten.clang"
  },
  "schemaVersion": "3.3.3",
  "updatedAt": "2020-12-21T15:07:36.031Z",
  "networkType": "ethereum",
  "devdoc": {
    "methods": {}
  },
  "userdoc": {
    "methods": {}
  }
}